{
  "_format": "hh-sol-artifact-1",
  "contractName": "LiquidityPool",
  "sourceName": "contracts/LiquidityPool.sol",
  "abi": [
    {
      "inputs": [
        {
          "internalType": "uint256",
          "name": "_feePercent",
          "type": "uint256"
        },
        {
          "internalType": "address",
          "name": "_token",
          "type": "address"
        },
        {
          "internalType": "address",
          "name": "_owner",
          "type": "address"
        }
      ],
      "stateMutability": "nonpayable",
      "type": "constructor"
    },
    {
      "anonymous": false,
      "inputs": [
        {
          "indexed": false,
          "internalType": "address",
          "name": "provider",
          "type": "address"
        },
        {
          "indexed": false,
          "internalType": "uint256",
          "name": "ethAmount",
          "type": "uint256"
        },
        {
          "indexed": false,
          "internalType": "address",
          "name": "tokenProvided",
          "type": "address"
        },
        {
          "indexed": false,
          "internalType": "uint256",
          "name": "tokenAmount",
          "type": "uint256"
        },
        {
          "indexed": false,
          "internalType": "uint256",
          "name": "newEthPool",
          "type": "uint256"
        },
        {
          "indexed": false,
          "internalType": "uint256",
          "name": "newTokenPool",
          "type": "uint256"
        }
      ],
      "name": "AddLiquidity",
      "type": "event"
    },
    {
      "anonymous": false,
      "inputs": [
        {
          "indexed": false,
          "internalType": "address",
          "name": "exchanger",
          "type": "address"
        },
        {
          "indexed": false,
          "internalType": "address",
          "name": "tokenGet",
          "type": "address"
        },
        {
          "indexed": false,
          "internalType": "uint256",
          "name": "amountGet",
          "type": "uint256"
        },
        {
          "indexed": false,
          "internalType": "address",
          "name": "tokenGive",
          "type": "address"
        },
        {
          "indexed": false,
          "internalType": "uint256",
          "name": "amountGive",
          "type": "uint256"
        },
        {
          "indexed": false,
          "internalType": "uint256",
          "name": "feesPayed",
          "type": "uint256"
        },
        {
          "indexed": false,
          "internalType": "uint256",
          "name": "newEthPool",
          "type": "uint256"
        },
        {
          "indexed": false,
          "internalType": "uint256",
          "name": "newTokenPool",
          "type": "uint256"
        }
      ],
      "name": "Exchange",
      "type": "event"
    },
    {
      "inputs": [
        {
          "internalType": "address",
          "name": "tokenProvided",
          "type": "address"
        },
        {
          "internalType": "uint256",
          "name": "tokenAmount",
          "type": "uint256"
        }
      ],
      "name": "addLiquidity",
      "outputs": [],
      "stateMutability": "payable",
      "type": "function"
    },
    {
      "inputs": [],
      "name": "ethPool",
      "outputs": [
        {
          "internalType": "uint256",
          "name": "",
          "type": "uint256"
        }
      ],
      "stateMutability": "view",
      "type": "function"
    },
    {
      "inputs": [],
      "name": "ethToToken",
      "outputs": [],
      "stateMutability": "payable",
      "type": "function"
    },
    {
      "inputs": [],
      "name": "feePercent",
      "outputs": [
        {
          "internalType": "uint256",
          "name": "",
          "type": "uint256"
        }
      ],
      "stateMutability": "view",
      "type": "function"
    },
    {
      "inputs": [],
      "name": "getEthFeesAcumulated",
      "outputs": [
        {
          "internalType": "uint256",
          "name": "",
          "type": "uint256"
        }
      ],
      "stateMutability": "view",
      "type": "function"
    },
    {
      "inputs": [],
      "name": "getTokenFeesAcumulated",
      "outputs": [
        {
          "internalType": "uint256",
          "name": "",
          "type": "uint256"
        }
      ],
      "stateMutability": "view",
      "type": "function"
    },
    {
      "inputs": [],
      "name": "owner",
      "outputs": [
        {
          "internalType": "address",
          "name": "",
          "type": "address"
        }
      ],
      "stateMutability": "view",
      "type": "function"
    },
    {
      "inputs": [],
      "name": "token",
      "outputs": [
        {
          "internalType": "address",
          "name": "",
          "type": "address"
        }
      ],
      "stateMutability": "view",
      "type": "function"
    },
    {
      "inputs": [],
      "name": "tokenPool",
      "outputs": [
        {
          "internalType": "uint256",
          "name": "",
          "type": "uint256"
        }
      ],
      "stateMutability": "view",
      "type": "function"
    },
    {
      "inputs": [
        {
          "internalType": "uint256",
          "name": "tokenAmount",
          "type": "uint256"
        }
      ],
      "name": "tokenToEth",
      "outputs": [],
      "stateMutability": "nonpayable",
      "type": "function"
    },
    {
      "inputs": [
        {
          "internalType": "uint256",
          "name": "ethAmount",
          "type": "uint256"
        }
      ],
      "name": "withdrawEthFees",
      "outputs": [],
      "stateMutability": "nonpayable",
      "type": "function"
    },
    {
      "inputs": [
        {
          "internalType": "uint256",
          "name": "tokenAmount",
          "type": "uint256"
        }
      ],
      "name": "withdrawTokenFees",
      "outputs": [],
      "stateMutability": "nonpayable",
      "type": "function"
    }
  ],
  "bytecode": "0x60806040523480156200001157600080fd5b506040516200181638038062001816833981810160405281019062000037919062000116565b80600660006101000a81548173ffffffffffffffffffffffffffffffffffffffff021916908373ffffffffffffffffffffffffffffffffffffffff160217905550600080819055506000600181905550600060028190555060006003819055508260048190555081600560006101000a81548173ffffffffffffffffffffffffffffffffffffffff021916908373ffffffffffffffffffffffffffffffffffffffff160217905550505050620001de565b600081519050620000f981620001aa565b92915050565b6000815190506200011081620001c4565b92915050565b6000806000606084860312156200012c57600080fd5b60006200013c86828701620000ff565b93505060206200014f86828701620000e8565b92505060406200016286828701620000e8565b9150509250925092565b6000620001798262000180565b9050919050565b600073ffffffffffffffffffffffffffffffffffffffff82169050919050565b6000819050919050565b620001b5816200016c565b8114620001c157600080fd5b50565b620001cf81620001a0565b8114620001db57600080fd5b50565b61162880620001ee6000396000f3fe6080604052600436106100a75760003560e01c80637fd6f15c116100645780637fd6f15c1461017a5780638da5cb5b146101a55780639027c31d146101d0578063a7183709146101f9578063f16673a414610224578063fc0c546a1461024f576100a7565b8063104e9929146100ac57806342742c6e146100d757806356688700146101005780636ef86b5a1461011c57806370b2a30f14610147578063789770f414610170575b600080fd5b3480156100b857600080fd5b506100c161027a565b6040516100ce91906113c6565b60405180910390f35b3480156100e357600080fd5b506100fe60048036038101906100f99190610de1565b610280565b005b61011a60048036038101906101159190610d7c565b6103c7565b005b34801561012857600080fd5b50610131610661565b60405161013e91906113c6565b60405180910390f35b34801561015357600080fd5b5061016e60048036038101906101699190610de1565b6106fb565b005b610178610948565b005b34801561018657600080fd5b5061018f610b4b565b60405161019c91906113c6565b60405180910390f35b3480156101b157600080fd5b506101ba610b51565b6040516101c7919061114c565b60405180910390f35b3480156101dc57600080fd5b506101f760048036038101906101f29190610de1565b610b77565b005b34801561020557600080fd5b5061020e610c77565b60405161021b91906113c6565b60405180910390f35b34801561023057600080fd5b50610239610d11565b60405161024691906113c6565b60405180910390f35b34801561025b57600080fd5b50610264610d17565b604051610271919061114c565b60405180910390f35b60015481565b600660009054906101000a900473ffffffffffffffffffffffffffffffffffffffff1673ffffffffffffffffffffffffffffffffffffffff163373ffffffffffffffffffffffffffffffffffffffff1614610310576040517f08c379a000000000000000000000000000000000000000000000000000000000815260040161030790611366565b60405180910390fd5b806002541015610355576040517f08c379a000000000000000000000000000000000000000000000000000000000815260040161034c90611306565b60405180910390fd5b3373ffffffffffffffffffffffffffffffffffffffff166108fc829081150290604051600060405180830381858888f1935050505015801561039b573d6000803e3d6000fd5b50806000546103aa91906114d3565b600081905550806002546103be91906114d3565b60028190555050565b600660009054906101000a900473ffffffffffffffffffffffffffffffffffffffff1673ffffffffffffffffffffffffffffffffffffffff163373ffffffffffffffffffffffffffffffffffffffff1614610457576040517f08c379a000000000000000000000000000000000000000000000000000000000815260040161044e906113a6565b60405180910390fd5b600560009054906101000a900473ffffffffffffffffffffffffffffffffffffffff1673ffffffffffffffffffffffffffffffffffffffff168273ffffffffffffffffffffffffffffffffffffffff16146104e7576040517f08c379a00000000000000000000000000000000000000000000000000000000081526004016104de90611386565b60405180910390fd5b60003414806104f65750600081145b15610536576040517f08c379a000000000000000000000000000000000000000000000000000000000815260040161052d90611326565b60405180910390fd5b8173ffffffffffffffffffffffffffffffffffffffff166323b872dd3330846040518463ffffffff1660e01b815260040161057393929190611167565b602060405180830381600087803b15801561058d57600080fd5b505af11580156105a1573d6000803e3d6000fd5b505050506040513d601f19601f820116820180604052508101906105c59190610db8565b6105ce57600080fd5b346000546105dc91906113f2565b600081905550806001546105f091906113f2565b6001819055507f166ddb815a41f60899d37e5c34db8f6cd53a5c65da870fcc7315af673878562a3334600560009054906101000a900473ffffffffffffffffffffffffffffffffffffffff168460005460015460405161065596959493929190611245565b60405180910390a15050565b6000600660009054906101000a900473ffffffffffffffffffffffffffffffffffffffff1673ffffffffffffffffffffffffffffffffffffffff163373ffffffffffffffffffffffffffffffffffffffff16146106f3576040517f08c379a00000000000000000000000000000000000000000000000000000000081526004016106ea906112c6565b60405180910390fd5b600254905090565b600060646004548361070d9190611479565b6107179190611448565b9050600060015460005461072b9190611479565b905060008360015461073d91906113f2565b90506000838261074d91906114d3565b836107589190611448565b905060008160005461076a91906114d3565b90508060005410156107b1576040517f08c379a00000000000000000000000000000000000000000000000000000000081526004016107a8906112e6565b60405180910390fd5b600560009054906101000a900473ffffffffffffffffffffffffffffffffffffffff1673ffffffffffffffffffffffffffffffffffffffff166323b872dd3330896040518463ffffffff1660e01b815260040161081093929190611167565b602060405180830381600087803b15801561082a57600080fd5b505af115801561083e573d6000803e3d6000fd5b505050506040513d601f19601f820116820180604052508101906108629190610db8565b61086b57600080fd5b3373ffffffffffffffffffffffffffffffffffffffff166108fc829081150290604051600060405180830381858888f193505050501580156108b1573d6000803e3d6000fd5b508160008190555082600181905550846003546108ce91906113f2565b6003819055507f181915e4a481e6f5026085be15c5403daa8368fefee9a15a611372f3eada074d33600560009054906101000a900473ffffffffffffffffffffffffffffffffffffffff16886000858a60005460015460405161093898979695949392919061119e565b60405180910390a1505050505050565b600060646004543461095a9190611479565b6109649190611448565b905060006001546000546109789190611479565b905060003460005461098a91906113f2565b90506000838261099a91906114d3565b836109a59190611448565b90506000816001546109b791906114d3565b90508060015410156109fe576040517f08c379a00000000000000000000000000000000000000000000000000000000081526004016109f5906112a6565b60405180910390fd5b600560009054906101000a900473ffffffffffffffffffffffffffffffffffffffff1673ffffffffffffffffffffffffffffffffffffffff1663a9059cbb33836040518363ffffffff1660e01b8152600401610a5b92919061121c565b602060405180830381600087803b158015610a7557600080fd5b505af1158015610a89573d6000803e3d6000fd5b505050506040513d601f19601f82011682018060405250810190610aad9190610db8565b610ab657600080fd5b826000819055508160018190555084600254610ad291906113f2565b6002819055507f181915e4a481e6f5026085be15c5403daa8368fefee9a15a611372f3eada074d33600034600560009054906101000a900473ffffffffffffffffffffffffffffffffffffffff16858a600054600154604051610b3c98979695949392919061119e565b60405180910390a15050505050565b60045481565b600660009054906101000a900473ffffffffffffffffffffffffffffffffffffffff1681565b600660009054906101000a900473ffffffffffffffffffffffffffffffffffffffff1673ffffffffffffffffffffffffffffffffffffffff163373ffffffffffffffffffffffffffffffffffffffff1614610c07576040517f08c379a0000000000000000000000000000000000000000000000000000000008152600401610bfe90611366565b60405180910390fd5b806003541015610c4c576040517f08c379a0000000000000000000000000000000000000000000000000000000008152600401610c4390611346565b60405180910390fd5b80600154610c5a91906114d3565b60018190555080600354610c6e91906114d3565b60038190555050565b6000600660009054906101000a900473ffffffffffffffffffffffffffffffffffffffff1673ffffffffffffffffffffffffffffffffffffffff163373ffffffffffffffffffffffffffffffffffffffff1614610d09576040517f08c379a0000000000000000000000000000000000000000000000000000000008152600401610d00906112c6565b60405180910390fd5b600354905090565b60005481565b600560009054906101000a900473ffffffffffffffffffffffffffffffffffffffff1681565b600081359050610d4c816115ad565b92915050565b600081519050610d61816115c4565b92915050565b600081359050610d76816115db565b92915050565b60008060408385031215610d8f57600080fd5b6000610d9d85828601610d3d565b9250506020610dae85828601610d67565b9150509250929050565b600060208284031215610dca57600080fd5b6000610dd884828501610d52565b91505092915050565b600060208284031215610df357600080fd5b6000610e0184828501610d67565b91505092915050565b610e1381611507565b82525050565b6000610e26601d836113e1565b91507f4e6f7420656e6f75676820746f6b656e7320696e2074686520706f6f6c0000006000830152602082019050919050565b6000610e666035836113e1565b91507f43616c6c6572206d757374206f776e2074686520636f6e747261637420746f2060008301527f76696577206665657320616363756d756c6174656400000000000000000000006020830152604082019050919050565b6000610ecc601a836113e1565b91507f4e6f7420656e6f7567682045746820696e2074686520706f6f6c0000000000006000830152602082019050919050565b6000610f0c6035836113e1565b91507f576974686472617720726571756573742069732067726561746572207468616e60008301527f20455448206665657320616363756d756c6174656400000000000000000000006020830152604082019050919050565b6000610f72601f836113e1565b91507f4d7573742070726f7669646520626f74682045544820616e6420546f6b656e006000830152602082019050919050565b6000610fb26037836113e1565b91507f576974686472617720726571756573742069732067726561746572207468616e60008301527f20746f6b656e206665657320616363756d756c617465640000000000000000006020830152604082019050919050565b6000611018602d836113e1565b91507f43616c6c6572206d757374206f776e2074686520636f6e747261637420746f2060008301527f77697468647261772066656573000000000000000000000000000000000000006020830152604082019050919050565b600061107e602a836113e1565b91507f5468697320746f6b656e2063616e6e6f742062652070726f766964656420696e60008301527f207468697320706f6f6c000000000000000000000000000000000000000000006020830152604082019050919050565b60006110e46037836113e1565b91507f43616c6c6572206d757374206f776e2074686520636f6e747261637420746f2060008301527f62652061206c69717569646974792070726f76696465720000000000000000006020830152604082019050919050565b61114681611545565b82525050565b60006020820190506111616000830184610e0a565b92915050565b600060608201905061117c6000830186610e0a565b6111896020830185610e0a565b611196604083018461113d565b949350505050565b6000610100820190506111b4600083018b610e0a565b6111c1602083018a610e0a565b6111ce604083018961113d565b6111db6060830188610e0a565b6111e8608083018761113d565b6111f560a083018661113d565b61120260c083018561113d565b61120f60e083018461113d565b9998505050505050505050565b60006040820190506112316000830185610e0a565b61123e602083018461113d565b9392505050565b600060c08201905061125a6000830189610e0a565b611267602083018861113d565b6112746040830187610e0a565b611281606083018661113d565b61128e608083018561113d565b61129b60a083018461113d565b979650505050505050565b600060208201905081810360008301526112bf81610e19565b9050919050565b600060208201905081810360008301526112df81610e59565b9050919050565b600060208201905081810360008301526112ff81610ebf565b9050919050565b6000602082019050818103600083015261131f81610eff565b9050919050565b6000602082019050818103600083015261133f81610f65565b9050919050565b6000602082019050818103600083015261135f81610fa5565b9050919050565b6000602082019050818103600083015261137f8161100b565b9050919050565b6000602082019050818103600083015261139f81611071565b9050919050565b600060208201905081810360008301526113bf816110d7565b9050919050565b60006020820190506113db600083018461113d565b92915050565b600082825260208201905092915050565b60006113fd82611545565b915061140883611545565b9250827fffffffffffffffffffffffffffffffffffffffffffffffffffffffffffffffff0382111561143d5761143c61154f565b5b828201905092915050565b600061145382611545565b915061145e83611545565b92508261146e5761146d61157e565b5b828204905092915050565b600061148482611545565b915061148f83611545565b9250817fffffffffffffffffffffffffffffffffffffffffffffffffffffffffffffffff04831182151516156114c8576114c761154f565b5b828202905092915050565b60006114de82611545565b91506114e983611545565b9250828210156114fc576114fb61154f565b5b828203905092915050565b600061151282611525565b9050919050565b60008115159050919050565b600073ffffffffffffffffffffffffffffffffffffffff82169050919050565b6000819050919050565b7f4e487b7100000000000000000000000000000000000000000000000000000000600052601160045260246000fd5b7f4e487b7100000000000000000000000000000000000000000000000000000000600052601260045260246000fd5b6115b681611507565b81146115c157600080fd5b50565b6115cd81611519565b81146115d857600080fd5b50565b6115e481611545565b81146115ef57600080fd5b5056fea26469706673582212201e28d404fdbd6741b7777c1fea2e7fb394bd9182ff7eaed45c65a476b1695ea564736f6c63430008000033",
  "linkReferences": {},
  "deployedLinkReferences": {}
}