{
  "_format": "hh-sol-artifact-1",
  "contractName": "LiquidityPool",
  "sourceName": "contracts/LiquidityPool.sol",
  "abi": [
    {
      "inputs": [
        {
          "internalType": "uint256",
          "name": "_feePercent",
          "type": "uint256"
        },
        {
          "internalType": "address",
          "name": "_token",
          "type": "address"
        },
        {
          "internalType": "address",
          "name": "_owner",
          "type": "address"
        }
      ],
      "stateMutability": "nonpayable",
      "type": "constructor"
    },
    {
      "anonymous": false,
      "inputs": [
        {
          "indexed": false,
          "internalType": "address",
          "name": "provider",
          "type": "address"
        },
        {
          "indexed": false,
          "internalType": "uint256",
          "name": "ethAmount",
          "type": "uint256"
        },
        {
          "indexed": false,
          "internalType": "address",
          "name": "tokenProvided",
          "type": "address"
        },
        {
          "indexed": false,
          "internalType": "uint256",
          "name": "tokenAmount",
          "type": "uint256"
        }
      ],
      "name": "AddLiquidity",
      "type": "event"
    },
    {
      "anonymous": false,
      "inputs": [
        {
          "indexed": false,
          "internalType": "address",
          "name": "exchanger",
          "type": "address"
        },
        {
          "indexed": false,
          "internalType": "address",
          "name": "tokenGet",
          "type": "address"
        },
        {
          "indexed": false,
          "internalType": "uint256",
          "name": "amountGet",
          "type": "uint256"
        },
        {
          "indexed": false,
          "internalType": "address",
          "name": "tokenGive",
          "type": "address"
        },
        {
          "indexed": false,
          "internalType": "uint256",
          "name": "amountGive",
          "type": "uint256"
        },
        {
          "indexed": false,
          "internalType": "uint256",
          "name": "feesPayed",
          "type": "uint256"
        }
      ],
      "name": "Exchange",
      "type": "event"
    },
    {
      "inputs": [
        {
          "internalType": "address",
          "name": "tokenProvided",
          "type": "address"
        },
        {
          "internalType": "uint256",
          "name": "tokenAmount",
          "type": "uint256"
        }
      ],
      "name": "addLiquidity",
      "outputs": [],
      "stateMutability": "payable",
      "type": "function"
    },
    {
      "inputs": [],
      "name": "ethPool",
      "outputs": [
        {
          "internalType": "uint256",
          "name": "",
          "type": "uint256"
        }
      ],
      "stateMutability": "view",
      "type": "function"
    },
    {
      "inputs": [],
      "name": "ethToToken",
      "outputs": [],
      "stateMutability": "payable",
      "type": "function"
    },
    {
      "inputs": [],
      "name": "feePercent",
      "outputs": [
        {
          "internalType": "uint256",
          "name": "",
          "type": "uint256"
        }
      ],
      "stateMutability": "view",
      "type": "function"
    },
    {
      "inputs": [],
      "name": "getFeesAcumulated",
      "outputs": [
        {
          "internalType": "uint256",
          "name": "",
          "type": "uint256"
        }
      ],
      "stateMutability": "view",
      "type": "function"
    },
    {
      "inputs": [],
      "name": "owner",
      "outputs": [
        {
          "internalType": "address",
          "name": "",
          "type": "address"
        }
      ],
      "stateMutability": "view",
      "type": "function"
    },
    {
      "inputs": [],
      "name": "token",
      "outputs": [
        {
          "internalType": "address",
          "name": "",
          "type": "address"
        }
      ],
      "stateMutability": "view",
      "type": "function"
    },
    {
      "inputs": [],
      "name": "tokenPool",
      "outputs": [
        {
          "internalType": "uint256",
          "name": "",
          "type": "uint256"
        }
      ],
      "stateMutability": "view",
      "type": "function"
    },
    {
      "inputs": [
        {
          "internalType": "uint256",
          "name": "tokenAmount",
          "type": "uint256"
        }
      ],
      "name": "tokenToEth",
      "outputs": [],
      "stateMutability": "nonpayable",
      "type": "function"
    },
    {
      "inputs": [
        {
          "internalType": "uint256",
          "name": "amount",
          "type": "uint256"
        }
      ],
      "name": "withdrawFees",
      "outputs": [],
      "stateMutability": "nonpayable",
      "type": "function"
    }
  ],
  "bytecode": "0x60806040523480156200001157600080fd5b50604051620015213803806200152183398181016040528101906200003791906200010e565b80600560006101000a81548173ffffffffffffffffffffffffffffffffffffffff021916908373ffffffffffffffffffffffffffffffffffffffff16021790555060008081905550600060018190555060006002819055508260038190555081600460006101000a81548173ffffffffffffffffffffffffffffffffffffffff021916908373ffffffffffffffffffffffffffffffffffffffff160217905550505050620001d6565b600081519050620000f181620001a2565b92915050565b6000815190506200010881620001bc565b92915050565b6000806000606084860312156200012457600080fd5b60006200013486828701620000f7565b93505060206200014786828701620000e0565b92505060406200015a86828701620000e0565b9150509250925092565b6000620001718262000178565b9050919050565b600073ffffffffffffffffffffffffffffffffffffffff82169050919050565b6000819050919050565b620001ad8162000164565b8114620001b957600080fd5b50565b620001c78162000198565b8114620001d357600080fd5b50565b61133b80620001e66000396000f3fe6080604052600436106100915760003560e01c80637fd6f15c116100595780637fd6f15c146101395780638da5cb5b14610164578063ad7cb3661461018f578063f16673a4146101ba578063fc0c546a146101e557610091565b8063104e99291461009657806356688700146100c15780635e318e07146100dd57806370b2a30f14610106578063789770f41461012f575b600080fd5b3480156100a257600080fd5b506100ab610210565b6040516100b891906110d9565b60405180910390f35b6100db60048036038101906100d69190610b4e565b610216565b005b3480156100e957600080fd5b5061010460048036038101906100ff9190610bb3565b61048e565b005b34801561011257600080fd5b5061012d60048036038101906101289190610bb3565b6105d5565b005b61013761082d565b005b34801561014557600080fd5b5061014e610a1d565b60405161015b91906110d9565b60405180910390f35b34801561017057600080fd5b50610179610a23565b6040516101869190610eb8565b60405180910390f35b34801561019b57600080fd5b506101a4610a49565b6040516101b191906110d9565b60405180910390f35b3480156101c657600080fd5b506101cf610ae3565b6040516101dc91906110d9565b60405180910390f35b3480156101f157600080fd5b506101fa610ae9565b6040516102079190610eb8565b60405180910390f35b60015481565b600560009054906101000a900473ffffffffffffffffffffffffffffffffffffffff1673ffffffffffffffffffffffffffffffffffffffff163373ffffffffffffffffffffffffffffffffffffffff16146102a6576040517f08c379a000000000000000000000000000000000000000000000000000000000815260040161029d90611099565b60405180910390fd5b600460009054906101000a900473ffffffffffffffffffffffffffffffffffffffff1673ffffffffffffffffffffffffffffffffffffffff168273ffffffffffffffffffffffffffffffffffffffff1614610336576040517f08c379a000000000000000000000000000000000000000000000000000000000815260040161032d90611079565b60405180910390fd5b60003414806103455750600081145b15610385576040517f08c379a000000000000000000000000000000000000000000000000000000000815260040161037c90611039565b60405180910390fd5b8173ffffffffffffffffffffffffffffffffffffffff166323b872dd3330846040518463ffffffff1660e01b81526004016103c293929190610ed3565b602060405180830381600087803b1580156103dc57600080fd5b505af11580156103f0573d6000803e3d6000fd5b505050506040513d601f19601f820116820180604052508101906104149190610b8a565b61041d57600080fd5b34600081905550806001819055507f07ee83a12e9cadb4542bb1d61520871092e3b438997eca252ca72ef11685991d3334600460009054906101000a900473ffffffffffffffffffffffffffffffffffffffff16846040516104829493929190610f94565b60405180910390a15050565b600560009054906101000a900473ffffffffffffffffffffffffffffffffffffffff1673ffffffffffffffffffffffffffffffffffffffff163373ffffffffffffffffffffffffffffffffffffffff161461051e576040517f08c379a000000000000000000000000000000000000000000000000000000000815260040161051590611059565b60405180910390fd5b806002541015610563576040517f08c379a000000000000000000000000000000000000000000000000000000000815260040161055a90610ff9565b60405180910390fd5b3373ffffffffffffffffffffffffffffffffffffffff166108fc829081150290604051600060405180830381858888f193505050501580156105a9573d6000803e3d6000fd5b50806000546105b891906111e6565b600081905550806002546105cc91906111e6565b60028190555050565b60006001546000546105e7919061118c565b90506000826001546105f99190611105565b905060008183610609919061115b565b905060008160005461061b91906111e6565b9050600060646003548361062f919061118c565b610639919061115b565b90506000818361064991906111e6565b90508060025460005461065c91906111e6565b101561069d576040517f08c379a0000000000000000000000000000000000000000000000000000000008152600401610694906110b9565b60405180910390fd5b600460009054906101000a900473ffffffffffffffffffffffffffffffffffffffff1673ffffffffffffffffffffffffffffffffffffffff166323b872dd33308a6040518463ffffffff1660e01b81526004016106fc93929190610ed3565b602060405180830381600087803b15801561071657600080fd5b505af115801561072a573d6000803e3d6000fd5b505050506040513d601f19601f8201168201806040525081019061074e9190610b8a565b61075757600080fd5b3373ffffffffffffffffffffffffffffffffffffffff166108fc829081150290604051600060405180830381858888f1935050505015801561079d573d6000803e3d6000fd5b508360008190555084600181905550816002546107ba9190611105565b6002819055507fab5b7a9858b75eff776cd539e6b3689a8a2607488bb95b71dc1c22955fdd05c533600460009054906101000a900473ffffffffffffffffffffffffffffffffffffffff16896000858760405161081c96959493929190610f0a565b60405180910390a150505050505050565b600060646003543461083f919061118c565b610849919061115b565b9050600060015460005461085d919061118c565b905060003460005461086f9190611105565b90506000818361087f919061115b565b905060008160015461089191906111e6565b90508060015410156108d8576040517f08c379a00000000000000000000000000000000000000000000000000000000081526004016108cf90610fd9565b60405180910390fd5b600460009054906101000a900473ffffffffffffffffffffffffffffffffffffffff1673ffffffffffffffffffffffffffffffffffffffff1663a9059cbb33836040518363ffffffff1660e01b8152600401610935929190610f6b565b602060405180830381600087803b15801561094f57600080fd5b505af1158015610963573d6000803e3d6000fd5b505050506040513d601f19601f820116820180604052508101906109879190610b8a565b61099057600080fd5b8260008190555081600181905550846002546109ac9190611105565b6002819055507fab5b7a9858b75eff776cd539e6b3689a8a2607488bb95b71dc1c22955fdd05c533600034600460009054906101000a900473ffffffffffffffffffffffffffffffffffffffff16858a604051610a0e96959493929190610f0a565b60405180910390a15050505050565b60035481565b600560009054906101000a900473ffffffffffffffffffffffffffffffffffffffff1681565b6000600560009054906101000a900473ffffffffffffffffffffffffffffffffffffffff1673ffffffffffffffffffffffffffffffffffffffff163373ffffffffffffffffffffffffffffffffffffffff1614610adb576040517f08c379a0000000000000000000000000000000000000000000000000000000008152600401610ad290611019565b60405180910390fd5b600254905090565b60005481565b600460009054906101000a900473ffffffffffffffffffffffffffffffffffffffff1681565b600081359050610b1e816112c0565b92915050565b600081519050610b33816112d7565b92915050565b600081359050610b48816112ee565b92915050565b60008060408385031215610b6157600080fd5b6000610b6f85828601610b0f565b9250506020610b8085828601610b39565b9150509250929050565b600060208284031215610b9c57600080fd5b6000610baa84828501610b24565b91505092915050565b600060208284031215610bc557600080fd5b6000610bd384828501610b39565b91505092915050565b610be58161121a565b82525050565b6000610bf8601d836110f4565b91507f4e6f7420656e6f75676820746f6b656e7320696e2074686520706f6f6c0000006000830152602082019050919050565b6000610c386031836110f4565b91507f576974686472617720726571756573742069732067726561746572207468616e60008301527f206665657320616363756d756c617465640000000000000000000000000000006020830152604082019050919050565b6000610c9e6035836110f4565b91507f43616c6c6572206d757374206f776e2074686520636f6e747261637420746f2060008301527f76696577206665657320616363756d756c6174656400000000000000000000006020830152604082019050919050565b6000610d04601f836110f4565b91507f4d7573742070726f7669646520626f74682045544820616e6420546f6b656e006000830152602082019050919050565b6000610d44602d836110f4565b91507f43616c6c6572206d757374206f776e2074686520636f6e747261637420746f2060008301527f77697468647261772066656573000000000000000000000000000000000000006020830152604082019050919050565b6000610daa602a836110f4565b91507f5468697320746f6b656e2063616e6e6f742062652070726f766964656420696e60008301527f207468697320706f6f6c000000000000000000000000000000000000000000006020830152604082019050919050565b6000610e106037836110f4565b91507f43616c6c6572206d757374206f776e2074686520636f6e747261637420746f2060008301527f62652061206c69717569646974792070726f76696465720000000000000000006020830152604082019050919050565b6000610e76601a836110f4565b91507f4e6f7420656e6f7567682045544820696e2074686520706f6f6c0000000000006000830152602082019050919050565b610eb281611258565b82525050565b6000602082019050610ecd6000830184610bdc565b92915050565b6000606082019050610ee86000830186610bdc565b610ef56020830185610bdc565b610f026040830184610ea9565b949350505050565b600060c082019050610f1f6000830189610bdc565b610f2c6020830188610bdc565b610f396040830187610ea9565b610f466060830186610bdc565b610f536080830185610ea9565b610f6060a0830184610ea9565b979650505050505050565b6000604082019050610f806000830185610bdc565b610f8d6020830184610ea9565b9392505050565b6000608082019050610fa96000830187610bdc565b610fb66020830186610ea9565b610fc36040830185610bdc565b610fd06060830184610ea9565b95945050505050565b60006020820190508181036000830152610ff281610beb565b9050919050565b6000602082019050818103600083015261101281610c2b565b9050919050565b6000602082019050818103600083015261103281610c91565b9050919050565b6000602082019050818103600083015261105281610cf7565b9050919050565b6000602082019050818103600083015261107281610d37565b9050919050565b6000602082019050818103600083015261109281610d9d565b9050919050565b600060208201905081810360008301526110b281610e03565b9050919050565b600060208201905081810360008301526110d281610e69565b9050919050565b60006020820190506110ee6000830184610ea9565b92915050565b600082825260208201905092915050565b600061111082611258565b915061111b83611258565b9250827fffffffffffffffffffffffffffffffffffffffffffffffffffffffffffffffff038211156111505761114f611262565b5b828201905092915050565b600061116682611258565b915061117183611258565b92508261118157611180611291565b5b828204905092915050565b600061119782611258565b91506111a283611258565b9250817fffffffffffffffffffffffffffffffffffffffffffffffffffffffffffffffff04831182151516156111db576111da611262565b5b828202905092915050565b60006111f182611258565b91506111fc83611258565b92508282101561120f5761120e611262565b5b828203905092915050565b600061122582611238565b9050919050565b60008115159050919050565b600073ffffffffffffffffffffffffffffffffffffffff82169050919050565b6000819050919050565b7f4e487b7100000000000000000000000000000000000000000000000000000000600052601160045260246000fd5b7f4e487b7100000000000000000000000000000000000000000000000000000000600052601260045260246000fd5b6112c98161121a565b81146112d457600080fd5b50565b6112e08161122c565b81146112eb57600080fd5b50565b6112f781611258565b811461130257600080fd5b5056fea2646970667358221220d67bec12e87afe6f16037d494424e2fd626b30b47a19cfe159aeef287a1bf6e164736f6c63430008000033",
  "linkReferences": {},
  "deployedLinkReferences": {}
}